:020000040800F2
:10000000D8060020CD0100089108000889080008E2
:100010008D0800087F0200087D0B0008000000002A
:100020000000000000000000000000007D09000842
:10003000290700080000000019090008690A0008E3
:10004000E7010008E7010008E7010008E7010008F0
:10005000E7010008E7010008E7010008E7010008E0
:10006000E7010008E7010008E7010008E7010008D0
:10007000E7010008E7010008E7010008E7010008C0
:10008000E7010008E7010008E7010008E7010008B0
:10009000650B0008E7010008E7010008E701000818
:1000A000E7010008E7010008E7010008E701000890
:1000B000E7010008E7010008E7010008E701000880
:1000C000E7010008E7010008E7010008E701000870
:1000D000E7010008E7010008E7010008E701000860
:1000E000E7010008E7010008E7010008E701000850
:1000F000E7010008E7010008E7010008E701000840
:10010000E7010008E7010008E7010008E70100082F
:10011000E7010008E7010008E7010008E70100081F
:10012000E7010008E7010008E7010008E70100080F
:1001300000F002F800F03AF80AA090E8000C8244BF
:100140008344AAF10107DA4501D100F02FF8AFF29C
:10015000090EBAE80F0013F0010F18BFFB1A43F0A5
:10016000010318472C0B00004C0B0000103A24BF71
:1001700078C878C1FAD8520724BF30C830C144BF0C
:1001800004680C607047000000230024002500264E
:10019000103A28BF78C1FBD8520728BF30C148BFEA
:1001A0000B6070471FB51FBD10B510BD00F031F8D2
:1001B0001146FFF7F7FF00F059FD00F04FF803B4C8
:1001C000FFF7F2FF03BC00F053F800000948804736
:1001D00009480047FEE7FEE7FEE7FEE7FEE7FEE729
:1001E000FEE7FEE7FEE7FEE704480549054A064B41
:1001F00070470000050B000831010008D8000020FE
:10020000D8060020D8020020D8020020704770478E
:100210007047754600F028F8AE460500694653461B
:1002200020F00700854618B020B5FFF7DDFFBDE8D8
:1002300020404FF000064FF000074FF000084FF04D
:10024000000B21F00701AC46ACE8C009ACE8C009DE
:10025000ACE8C009ACE8C0098D4670470446AFF36E
:1002600000802046FFF7ABFF004870477400002075
:1002700001491820ABBEFEE726000200704700BF10
:10028000FEE7000010B504460B48844209D1012165
:10029000480600F053FB00214FF0007000F04EFBC9
:1002A00008E00121880600F049FB00214FF0806042
:1002B00000F044FB10BD00000064004010B50021B8
:1002C000837A012202FA03F13D4A126842F00102E8
:1002D0003B4B1A603A4A1C3212688A43384B1C3333
:1002E0001A60027BCAB9364A0C3212688A43344B10
:1002F0000C331A604288C38842EA0343304A4032D2
:10030000847A42F834300288838842EA03432C4AD4
:100310004032847A02EBC4025360027B012A19D175
:10032000274A0C3212680A43254B0C331A60428864
:10033000038842EA0343224A4032847A42F8343046
:10034000C288838842EA03431D4A4032847A02EB22
:10035000C4025360C27A3AB9194A121D12688A431C
:10036000174B1B1D1A6006E0154A121D12680A433E
:10037000134B1B1D1A60028932B9114A14321268DC
:100380008A430F4B14331A600289012A06D10C4AA2
:10039000143212680A430A4B14331A60427B012A52
:1003A00006D1074A1C3212680A43054B1C331A60F7
:1003B000034A126822F00102014B1A6010BD0000CE
:1003C000006600401AB143690B43436102E0436990
:1003D0008B434361704730B5024600200023146808
:1003E00024F002041460146844F00104146000E076
:1003F0005B1C546804F001041CB94FF6FF74A3425F
:10040000F6D1546804F001040CB900206CE08C793A
:10041000012C04D1146844F08004146003E01468D3
:1004200024F080041460CC79012C04D1146844F0C9
:100430004004146003E0146824F0400414600C7A53
:10044000012C04D1146844F02004146003E0146803
:1004500024F0200414604C7A012C04D1146844F078
:100460001004146003E0146824F0100414608C7A03
:10047000012C04D1146844F00804146003E01468EB
:1004800024F008041460CC7A012C04D1146844F0E0
:100490000404146003E0146824F0040414608C78ED
:1004A000A407CD7844EA05640D7944EA05444D7902
:1004B00044EA05540D886D1E2C43D461146824F061
:1004C00001041460002300E05B1C546804F0010484
:1004D0001CB14FF6FF74A342F6D1546804F0010436
:1004E0000CB1002000E0012030BD08B54FF4E06001
:1004F00000F008FA14208DF8000000208DF80100AB
:1005000001208DF802008DF80300684600F0C2F962
:1005100008BD10B500F5D87303EB01131B6803F099
:1005200004031372137A53B900F5D87303EB011364
:100530001B6840F2FF7404EA5353136009E000F5AE
:10054000D87303EB01131B686FF0604404EAD30314
:10055000536000F5D87303EB01131B6803F002032B
:10056000537200F5D87303EB01135B6803F00F03BC
:10057000937200F5D87303EB01135B681B0AD37405
:1005800000F5D87303EB01139B68D37200F5D873A1
:1005900003EB01139B681C0A147300F5D87303EB7B
:1005A00001139B681C0C547300F5D87303EB011303
:1005B0009B681B0E937300F5D87303EB0113DB6884
:1005C000D37300F5D87303EB0113DB681C0A1474B2
:1005D00000F5D87303EB0113DB681C0C547400F5B1
:1005E000D87303EB0113DB681B0E937421B9C36846
:1005F00043F02003C36003E0036943F02003036179
:1006000010BD10B502460020936803F08063B3F17B
:10061000806F00D110E0936803F00063B3F1006FC6
:1006200001D1012008E0936803F08053B3F1805FAB
:1006300001D1022000E00420042874D002F5C07328
:1006400003EB00131B6803F0010402F5C07303EB16
:1006500000131C600B7A7BB94B7A0C8843EA445335
:1006600002F5C07404EB00142468234302F5C0743F
:1006700004EB0014236010E00B7A4C6843EAC403D7
:100680004C7A234302F5C07404EB0014246823431E
:1006900002F5C07404EB001423608B7A03F00F039F
:1006A0008B7202F5C07303EB00135B6823F00F0439
:1006B00002F5C07303EB00135C6002F5C07303EB3B
:1006C00000135B688C7A234302F5C07404EB0014BA
:1006D00063608B7B1C064B7B44EA03440B7B44EA40
:1006E0000323CC7A234302F5C07404EB0014A36007
:1006F0008B7C1C064B7C44EA03440B7C44EA0323BA
:10070000CC7B234302F5C07404EB0014E36002F5D4
:10071000C07303EB00131B6843F0010402F5C073C0
:1007200003EB00131C6010BD70472DE9F041024639
:1007300000250026002000230024002791F803C094
:100740000CF00F0591F803C00CF0100CBCF1000F79
:1007500003D091F802C04CEA050591F800C0BCF145
:10076000000F31D0146800202BE04FF0010C0CFA80
:1007700000F3B1F800C00CEA03069E4220D18300CA
:100780004FF00F0C0CFA03F7BC4305FA03FC4CEADC
:10079000040491F803C0BCF1280F06D14FF0010CFE
:1007A0000CFA00FCC2F814C00AE091F803C0BCF1D6
:1007B000480F05D14FF0010C0CFA00FCC2F810C034
:1007C000401C0828D1D31460B1F800C0BCF1FF0F61
:1007D00034DD546800202EE000F1080C4FF00108D1
:1007E00008FA0CF3B1F800C00CEA03069E4221D1CE
:1007F00083004FF00F0C0CFA03F7BC4305FA03FC1F
:100800004CEA040491F803C0BCF1280F05D100F1B3
:10081000080C08FA0CF8C2F8148091F803C0BCF177
:10082000480F07D100F1080C4FF0010808FA0CF846
:10083000C2F81080401C0828CED35460BDE8F08177
:1008400041617047016170470AB1016100E0416197
:100850007047000010B50A48006842F21071B0FB02
:10086000F1F201FB1200B0F57A7F04D24021054875
:10087000FFF7E8FF03E040210248FFF7E1FF10BD6A
:1008800000000020000C014000BFFEE700BFFEE7B3
:100890007047000070B5002100230F22C47804B314
:1008A000154C246804F4E064C4F5E064210AC1F145
:1008B0000403CA40447804FA03F1847814402143C5
:1008C00009010E4C0678A155047804F01F05012497
:1008D000AC4005786D11AD0005F1E025C5F800418B
:1008E00009E0047804F01F050124AC40044D0678AB
:1008F000761145F8264070BD0CED00E000E400E004
:1009000080E100E002490143024A116070470000A3
:100910000000FA050CED00E07047000029B1064A1E
:10092000D2690243044BDA6104E0034AD26982438C
:10093000014BDA61704700000010024029B1064AFD
:1009400012690243044B1A6104E0034A12698243AC
:10095000014B1A61704700000010024029B1064A9D
:1009600092690243044B9A6104E0034A926982430C
:10097000014B9A617047000000100240704710B5AB
:1009800000F002F810BD00000CB5002001900090AE
:100990003348006840F480303149086000BF304877
:1009A000006800F4003000900198401C019000980D
:1009B00018B90198B0F5A06FF1D12948006800F48A
:1009C000003010B10120009001E00020009000985C
:1009D000012843D12348006840F0100021490860F5
:1009E0000846006820F0030008600846006840F0F0
:1009F000020008601A484068194948600846406883
:100A000048600846406840F4806048600846406896
:100A100020F47C1048600846406840F4E8104860C4
:100A20000846006840F08070086000BF0C4800680D
:100A300000F000700028F9D00948406820F0030059
:100A4000074948600846406840F00200486000BF1F
:100A50000348406800F00C000828F9D10CBD0000E4
:100A600000100240002002400E480068401C0D4962
:100A700008600D4840680968B1FBF0F200FB1210F5
:100A800010B90120084908700748C068054909687D
:100A9000B1FBF0F200FB121010B9012002490872FC
:100AA00070470000000000201C00002070B5124BB1
:100AB0001946B1F1807F00D31DE021F07F40401E38
:100AC0004FF0E022506150170F22002807DA140778
:100AD000260E0A4C00F00F052D1F665503E0140783
:100AE000250E074C255400BF00204FF0E0229061F6
:100AF0000720106100BF70BD4019010018ED00E033
:100B000000E400E010B51348006840F0010011490E
:100B1000086008464068104908400E494860084689
:100B200000680E4908400B4908600846006820F438
:100B3000802008600846406820F4FE0048604FF4BA
:100B40001F008860FFF71BFF4FF00060044908603A
:100B500010BD0000001002400000FFF8FFFFF6FE8D
:100B600008ED00E010B5034A00210348FFF7D1FC6F
:100B700010BD0000600000200064004000BFFEE7E0
:100B800010B50648007B401CC1B204480173014601
:100B90000348FFF736FD044610BD00004800002062
:100BA0000064004010B5002401210C20FFF7D6FEA0
:100BB00007E00B4800EB84010A48FFF7B6FD601C14
:100BC000C4B2032CF5DB002407E0074800EB8401E6
:100BD0000648FFF7AAFD601CC4B2032CF5DB10BD6C
:100BE000040000200008014010000020000C01401B
:100BF00010B5044634B900224FF480710448FFF761
:100C000023FE04E0012211020148FFF71DFE10BD82
:100C10000008014010B50C48FFF734FB0020FFF737
:100C2000E7FF01214806FFF779FE08490648FFF76C
:100C3000D2FBFFF75AFC012202210348FFF7C2FB57
:100C40000348FFF73BFB10BD006400402C00002070
:100C50003800002010B5FFF729FFFFF7A3FFFFF7CB
:100C6000D9FF10BD10B5FFF7F5FD10BDFFF7F2FF7E
:100C70000AE0FFF7F7FF05480078012804D1FFF7E5
:100C80007FFF002001490870F3E700001C000020EE
:100C9000B00C000800000020600000006C0100089B
:100CA000100D000860000020780600008801000890
:100CB00000000000001003180008034800010310A2
:100CC00040000310040003280000000000000000A2
:100CD00005000000000000000A00000009000000FC
:100CE0000500000000000000000018090000F83FA7
:100CF00000000100000100003201000000000000BF
:100D000000000801020304050607080000000000B7
:0400000508000131BD
:00000001FF
